:020000040800F2
:1000000000100020111800085B1800085D18000897
:1000100000000000000000000000000000000000E0
:100020000000000000000000000000005F18000851
:1000300000000000000000006118000863180008BC
:100040006718000869180008D50D00086D18000829
:100050006F1800087118000873180008090D0008CF
:1000600077180008791800087B1800087D18000828
:100070007F180008811800088318000885180008F8
:1000800087180008891800088B1800088D180008C8
:100090008F18000891180008931800089518000898
:1000A00097180008991800089B1800089D18000868
:1000B0009F180008A1180008A3180008A518000838
:1000C000A718000810B5064C2378002B07D1054B64
:1000D000002B02D0044800E000BF0123237010BDB4
:1000E0007000002000000000AC2D000808B5084B8F
:1000F000002B03D00748084900E000BF0748036809
:10010000002B03D0064B002B00D0984708BDC046FB
:1001100000000000AC2D00087400002070000020DA
:1001200000000000164B002B00D1144B9D464022CE
:1001300092029A1A924600218B460F461348144A9F
:10014000121A02F03EF90F4B002B00D098470E4BCD
:10015000002B00D098470020002104000D000D481E
:10016000002802D00C4800E000BF02F0FBF820009D
:10017000290001F073F902F0DFF8C0460000080022
:1001800000100020000000000000000070000020AF
:10019000D80000200000000000000000837910B5A6
:1001A000002B20D0184B01681A688A431A605A68DD
:1001B0000468A2435A6002790468D2181168214386
:1001C00011609A6801688A439A60DA680468A243F9
:1001D000DA604279102A0ED00B4BD21811680368EE
:1001E0000B43136006E00379074C01681B191A687A
:1001F0008A431A6010BD9A6801680A439A60D968F8
:1002000002680A43DA60F5E700040140024B5B69CB
:100210001840431E9841704700040140014B58614B
:100220007047C04600040140F0B557464E4645466B
:100230000324E0B4002200230126A24603E0013398
:100240000232102B24D0341C0D689C402540A5425E
:10025000F5D10C79013C012C1FD954469440E4435C
:10026000A14605684C462C4004600C790568944012
:100270002C430460C46855469540AC43C460CC79B7
:10028000C56894402C430133C4600232102BDAD18C
:100290001CBC90469946A246F0BD544687689440DF
:1002A000E443274087604F79A146846897402743FD
:1002B00087608788AF4387808D7984889D402543F8
:1002C000ADB28580CDE7C046008A0840431E984104
:1002D0007047C0468161704701857047837870B56B
:1002E000002B09D103781F21194001238B40104AAC
:1002F000191C8023D15070BD05780D4BAA0803212D
:10030000C03292000D40FF24D658E900251C8D40D4
:10031000AE43351C4678B60134408C40291C21433D
:10032000D15002781F210A40012191401960E2E773
:1003300000E100E000B5064B1968002803D1054A2A
:100340000A401A6000BD802252000A431A60F9E791
:1003500000700040FFFEFFFF064B01211A6A8A432E
:100360001A621A6A04218A431A621A6A10431862CE
:100370007047C04600100240024B1A6A10431862D0
:100380007047C0460010024000B5064B196A0028AD
:1003900003D1054A0A401A6200BD802212020A43B4
:1003A0001A62F9E700100240FF7FFFFF00B5064B1D
:1003B000196A002803D1054A0A401A6200BD80224A
:1003C00052020A431A62F9E700100240FFFFFEFFE3
:1003D00000B5054B5A69002902D182435A6100BD1C
:1003E00010435861FBE7C0460010024000B5054BC2
:1003F0009A69002902D182439A6100BD1043986135
:10040000FBE7C0460010024000B5054BDA69002941
:1004100002D18243DA6100BD1043D861FBE7C046D8
:100420000010024000B5430908D10B4B1A681F2386
:100430001840C240101C0123184000BD012B04D0FD
:10044000022B05D0044B5A6BF1E7034B1A6AEEE717
:10045000014B5A6AEBE7C0460010024000217F22A0
:10046000FF230EC07047C04600B5002805D1054BDC
:10047000CA225A6253225A6200BD024BFF225A62BC
:10048000FAE7C0460028004010B5002382B00F4CA8
:100490000193E36801205A0615D401235B428021B1
:1004A000E3604020C90101E0002A08D1E368021C92
:1004B0001A40019B01330193019B8B42F4D1034B02
:1004C000D8684006C00F02B010BDC04600280040EA
:1004D00038B5124CCA23636253236362051CFFF7CD
:1004E000D3FF0023002813D0A36840229343A360C6
:1004F000A3682A681343A360AB6823616B68226911
:100500001B0413432361E36880229343E3600123C8
:10051000024AFF21181C516238BDC0460028004025
:1005200010B5002382B0124C0193A36801209A06F3
:100530001CD4CA23636253236362E368A0229343FB
:100540008021E3602020090201E0002A08D1E3684D
:10055000021C1A40019B01330193019B8B42F4D191
:10056000034BFF22D8685A628006C00F02B010BD4C
:100570000028004070B5334B40229B681340002890
:1005800030D1002B5AD1CB7000250B780024092BD9
:1005900007D90A3B0134DBB2E4B2092BF9D82401B4
:1005A000E4B2487823431B040024092807D90A38F9
:1005B0000134C0B2E4B20928F9D82401E4B28A783F
:1005C000204300020021092A07D90A3A0131D2B298
:1005D000C9B2092AF9D80901C9B21D4305430A4322
:1005E00015430AE0002B26D1CB700D784A782D04F4
:1005F000120215438A7815431D43124CCA266662BF
:1006000053266662FFF740FF061C0020002E0ED026
:100610000D4A012015402560E36880229343E36082
:10062000A3689A0603D4FFF77BFF431E9841054B4E
:10063000FF225A6270BDCB781B04D6E7CD782D041B
:10064000A3E7C046002800407F7F7F00F0B5474603
:1006500080B4174B7F221B681A4090468A70802214
:100660009E025C04D203B60E640E1A40F7B2E5B2E5
:10067000120C0F704D70CA70002816D13F09B800D7
:10068000C7190F207F000640BE192D090E70AE005D
:1006900075196D0004402C194C70444622099400D1
:1006A000A21852000340D3188B7004BC9046F0BDD2
:1006B0000028004038B5002837D14B7810221A4264
:1006C00003D093430A33DBB24B70CA780020002476
:1006D000092A07D90A3A0130D2B2C0B2092AF9D898
:1006E0000001C4B2224312040024092B07D90A3B9B
:1006F0000134DBB2E4B2092BF9D82401E4B28878E2
:1007000023431B02092839D900240A380134C0B216
:10071000E4B20928F9D82401E5B20978141C490388
:100720000C431C432843044309E0CC784B78240451
:100730001B021C438B781C430B785B031C43104D3E
:10074000CA21696253216962FFF79EFE011C0020E5
:1007500000290AD00B48802204406C60EB6801201D
:100760009343EB60AB689A0603D5054BFF225A62B0
:1007700038BDFFF7D5FE431E9841F6E70025CCE7CC
:10078000002800403FFFFF00F0B5394B40219B6837
:100790000B40002847D1002B64D1D370002413787C
:1007A00000210025092B07D90A3B0131DBB2C9B270
:1007B000092BF9D80901CDB251782B431D04002033
:1007C000092907D90A390130C9B2C0B20929F9D8B3
:1007D0000001C0B2937801430902092B45D90020DA
:1007E0000A3B0130DBB2C0B2092BF9D80601F6B2E0
:1007F0001E43137B0020092B07D90A3B0130DBB2D3
:10080000C0B2092BF9D80001C0B257680343BC46F7
:100810009768624617433C4325430D4335431A0608
:100820002B1C134312E0002B19D1D3700025536801
:10083000976891783B430B43117809040B43517837
:10084000127B09020B43120613432B43084ACA21A9
:10085000516253215162D361FF235362F0BDD578B9
:100860002D04E4E7D478240499E70026C0E7C046C5
:100870000028004010B50023144C82B00193CA2315
:10088000636253236362A36800291AD183438021E2
:10089000A360000AC90101E0002A08D1E3681A1C1C
:1008A000019B024001330193019B8B42F4D1074B22
:1008B000DB681840431E9841044BFF225A6202B085
:1008C00010BD1843A0600120F6E7C0460028004094
:1008D00082B000230193054B80000193019BC01857
:1008E0000190019B196002B07047C046502800403B
:1008F00082B000230193054B80000193019BC01837
:100900000190019B186802B07047C0465028004013
:10091000104BCA2210B55A6253225A6200290ED1D6
:1009200099680422041C9443A1439960196C1040F7
:100930000A1C82431A64074BFF225A6210BD996851
:100940000422041C944321439960196C104008430D
:100950001864F0E70028004030B50B4A031C146C03
:100960009168D56804222240840CE040C40B2240E8
:1009700019400A430020002A05D02D0418092D0C27
:100980002840431E984130BD0028004010B5054B5B
:100990000103DC688022090C1143C94322400A4349
:1009A000DA6010BD0028004030B503220A408908F3
:1009B000074B02318900CC5892000F259540AC437B
:1009C000CC50CC589040021C2243CA5030BDC04687
:1009D0000000014030B51A4CC02502192D065442C2
:1009E000624144190388002C01D0002A1AD07024D7
:1009F000A3434C882343134CA04203D0124D0C89CF
:100A00002B40234303804B68104CC3620B88038543
:100A10000319002B01D0002A08D08B7A038601230A
:100A2000838230BD0A4CA042E5D1E0E7094D43196D
:100A3000002BF2D0084A8318002BEED0EFE7C04617
:100A400000D4FEBF00100040FFFCFFFF00C0FEBF4F
:100A50000004004000B8FEBF00BCFEBF01235B42A3
:100A60004360002303800381438083727047C04644
:100A700041627047406A704700B5002904D103887D
:100A800001229343038000BD0288012313430380A6
:100A9000F9E7C0460023038043808380836083811D
:100AA000C38103824382704710B5012188B00220C0
:100AB000FFF7AAFC6846FFF7D1FF03A8FFF7EAFF9C
:100AC0000B4B0C49186800F02BFF0B4C0B4B6A4684
:100AD000013810800193201C002369461381538044
:100AE000FFF778FF201C0121FFF7C6FF08B010BDFB
:100AF0000000002040420F0000040040FEFF000004
:100B000000B5802383B05B016A46009303235371D1
:100B1000002313719371044801236946D371FFF7D1
:100B200083FB03B000BDC0460004004800B580232D
:100B300083B05B016946009303234B7100220123BC
:100B400003480B718A71CB71FFF76EFB03B000BDD8
:100B500000040048F0B5474680B4324F00233B7094
:100B60007B70BB70FB703B717B71FFF7DFFF8021F7
:100B70002D484901FFF7B0FB2C480021FFF778FF13
:100B80002B4C2A48FFF776FFA042FAD9FFF7B8FFAF
:100B9000802125484901FFF797FB0028F8D18021E3
:100BA00021484901FFF790FB0028F8D080211E481A
:100BB0004901FFF789FB0028F8D1282500260724E2
:100BC0001A480021FFF754FF802117484901FFF719
:100BD0007BFB0028F8D01548FFF74CFF80468021AA
:100BE00011484901FFF770FB0028F8D10F48FFF7C3
:100BF00041FF4346C01A282804D9BA5D0123A34007
:100C00001343BB55002C09D10136F6B20724013D30
:100C1000EDB2002DD4D104BC9046F0BD013CE4B24D
:100C2000F5E7C046B800002000040048000400407A
:100C30001F4E000070B50D4D7F20AC78204001F0B4
:100C400007FB8721C90501F0AFF9061CE87801F020
:100C5000FFFA311C00F0B4FE64B2054901F08CF8D3
:100C6000002C02DA80231B06C01870BDB8000020DB
:100C70000000204130B5012085B00121FFF7C4FB01
:100C800001235B4202930B4B0B49186800F048FEAE
:100C9000802501ACED05013800232080211C281C93
:100CA00023816380FFF796FE281C0121FFF7E4FEF5
:100CB00005B030BD0000002040420F0038B5051CD3
:100CC0008020C005FFF7D6FE041C8020C005FFF77A
:100CD000D1FE031BAB42F8D938BDC04608B5FA2394
:100CE0009B005843FFF7EAFF08BDC04608B58020C7
:100CF000C005FFF7BFFEFA21890000F011FE08BD14
:100D000008B5FFF7B7FF08BD802008B58001FFF7E1
:100D10007DFA00280ED06420FFF7E0FF80212648EE
:100D20008901FFF7D1FA00282ED080208001FFF73B
:100D300075FA08BD8020C001FFF768FA00280ED0C0
:100D40006420FFF7CBFF80211B48C901FFF7BCFAE5
:100D5000002821D08020C001FFF760FAE9E7802059
:100D60000002FFF753FA0028E3D06420FFF7B6FF34
:100D7000802111480902FFF7A7FA002814D080202B
:100D80000002FFF74BFAD4E70C4B01221A60FFF781
:100D9000ADFF0B4B1860C8E70A4B01221A60FFF742
:100DA000A5FF094B1860D5E7084B01221A60FFF731
:100DB0009DFF074B1860E2E7000400489400002004
:100DC00090000020A000002098000020A800002033
:100DD0009C000020802008B54001FFF7BDFD0028E1
:100DE0000BD0064B80201A68400101321A60FFF7D1
:100DF000CDFD80208002FFF711FA08BDA40000207D
:100E000008B5002807D0012844D0022800D177E097
:100E1000032811D008BD80214648C900FFF75CFABD
:100E2000802144484901FFF757FA90208021C005EE
:100E30000902FFF751FAEDE73F480421FFF74CFAAA
:100E40003D480221FFF748FA3A482021FFF744FACB
:100E50009020C0058021FFF73FFA9020C005402177
:100E6000FFF73AFA9020C0052021FFF735FA9020CD
:100E7000C0051021FFF730FA80212F48C900FFF785
:100E80002BFA2C481021FFF727FA2B480121FFF7F6
:100E900023FABFE729482021FFF71EFA274810212F
:100EA000FFF71AFA802123484900FFF715FA90202E
:100EB0008021C0054900FFF70FFA90208021C0056E
:100EC0008900FFF709FA90208021C0050901FFF78A
:100ED00003FA90208021C0054901FFF7FDF9902019
:100EE0008021C005C900FFF7F7F98021114889006A
:100EF000FFF7F2F99020C0050821FFF7EDF989E727
:100F00000D481021FFF7E8F90B482021FFF7E4F91D
:100F100009484021FFF7E0F907480821FFF7DCF90D
:100F2000802104480901FFF7D7F905480421FFF79C
:100F3000D3F96FE700080048000400480014004897
:100F4000000C004838B5041C0D1CFFF759FF002C9D
:100F50000BD1012D15D0022D1FD0002D04D18021E1
:100F60005F48C900FFF7B6F938BD012C0FD0022C3D
:100F70001AD0032CF8D1092DF6D85A4BAD005B5985
:100F80009F46802156484901FFF7A4F9ECE7092D57
:100F9000EAD8554BAD005B599F4690208021C00593
:100FA0000902FFF797F9DFE7052DDDD84F4BAD00BC
:100FB0005B599F4680214A480901FFF78BF9D3E727
:100FC0004B480821FFF786F9CEE749484021FFF753
:100FD00081F9C9E746482021FFF77CF9C4E7444876
:100FE0001021FFF777F9BFE742480421FFF772F9B4
:100FF000BAE741482021FFF76DF9B5E79020C00519
:101000000821FFF767F9AFE7802135488900FFF72E
:1010100061F9A9E790208021C005C900FFF75AF9BE
:10102000A2E790208021C0054901FFF753F99BE713
:1010300090208021C0050901FFF74CF994E790202A
:101040008021C0058900FFF745F98DE790208021B8
:10105000C0054900FFF73EF986E780212048490096
:10106000FFF738F980E724481021FFF733F97BE7D1
:101070001B481021FFF72EF976E780211C48C90094
:10108000FFF728F970E79020C0051021FFF722F93B
:101090006AE79020C0052021FFF71CF964E7902043
:1010A000C0054021FFF716F95EE79020C0058021BA
:1010B000FFF710F958E70A482021FFF70BF953E72B
:1010C0000B480221FFF706F94EE709480421FFF714
:1010D00001F949E706480121FFF7FCF844E7C0465B
:1010E00000080048782C0008A02C0008C82C000834
:1010F00000040048000C004800140048F0B55646B3
:101100004D4644465F46F0B4051C83B000208A4635
:101110009346FFF775FE0120FFF772FE0220FFF7EE
:101120006FFE0320FFF76CFE3E4A00233E4E5446FE
:10113000914698464A461368012B32D03368002BFB
:1011400005DD01345C4500DD544642463260374BD4
:101150001A68002A05DD013CA24500DD5C464246D6
:101160001A60012D27D0022D3CD0032DE2D10120A1
:10117000FFF746FE9620400001AFFFF7AFFD2C4978
:10118000381C221C01F026F9397830390120FFF78C
:10119000D9FE96204000FFF7A1FD4A461368012BB7
:1011A000CCD10023201C136003B03CBC9046994670
:1011B000A246AB46F0BD0020FFF722FE0120FFF75C
:1011C0001FFE962001AF4000FFF788FD1949221C41
:1011D000381C01F0FFF8397800203039FFF7B2FEF3
:1011E0007978D2E70220FFF70BFE0320FFF708FE15
:1011F000962001AF4000FFF771FD221C381C0D49FD
:1012000001F0E8F8397802203039FFF79BFE797851
:1012100003203039FFF796FE96204000FFF75EFD71
:1012200088E7C046A800002094000020A00000200D
:10123000E82C0008E02C000810B5041C802084B0C5
:1012400040050121FFF7E0F80120FFF773F8002CBB
:1012500020D00120FFF7AAF80020FFF7A7F801200F
:10126000FFF77AF82120FFF7DDF80028FAD0802078
:101270004000FFF781F80120FFF786F8FFF750F9EB
:1012800001A8FFF7EBF8002301A80193FFF720F96D
:1012900004B010BDFFF744F9FAE7C04630B50021AD
:1012A00083B017220120FFF729FF0021051C3B22F4
:1012B0000220FFF723FF041C0120FFF7BDFF6A4651
:1012C000002369460020937015705470FFF752F99F
:1012D00001A901230B708B704B7000200F23CB7082
:1012E000FFF7E8F903B030BD30B58024A40289B01F
:1012F000201CFEF793FF0025082202A80294012477
:10130000427105718471FEF749FF01A80223037041
:1013100045708470FEF7E2FF80240120FFF70AF891
:1013200064000020FFF7A0F8201C0021FFF7A2FABC
:101330008023DB0506930A4B04AA211C0020059399
:10134000FFF722FA201C0121FFF794FA80200121E7
:101350004001FFF7DDFA0120FFF786F809B030BD44
:101360008080808038B5002101220320FFF7C6FE6F
:101370001A4C011C20600020FFF7AAFA2368002BFA
:101380002BD0002117220120FFF7B8FE144D3B227D
:10139000286000210220FFF7B1FE124C296820606E
:1013A0000320FFF795FA21680420FFF791FA002146
:1013B00017220120FFF7A2FE0B4D002128603B22DF
:1013C0000220FFF79BFE094C296820600120FFF7EF
:1013D0007FFA21680220FFF77BFA38BDC0000020A9
:1013E000CC000020D0000020C8000020C400002055
:1013F00070B5802086B0C0020121E026FEF7E8FF2C
:10140000012402A90025360213480D71CC71029601
:10141000FEF70AFF01200121FEF7E8FF01200D2160
:10142000FFF7C2FA01200E21FFF7BEFA0F210120BB
:10143000FFF7BAFA04A80C2305714371847104966E
:10144000FEF7ACFE01A80723037044708470FEF71A
:1014500045FF06B070BDC04600040048F0B55F46C9
:1014600056464D464446F0B491B0FFF749FC002083
:10147000FFF7E2FEFFF738FFFFF7BAFFFFF714FBB5
:10148000802000030121FEF7A3FF8020C00301217B
:10149000FEF79EFF802040030121FEF799FF802088
:1014A000C0020121FEF794FF80208002012106ACDA
:1014B000FEF78EFF01232371211C0023082208A8B8
:1014C0006371A371E37100F073FF211C08220AA865
:1014D00000F06EFF211C08220CA800F069FF082212
:1014E000211C0EA800F064FFB44BB5480693B54B21
:1014F0000AA90893B44B05AF0A9304230C93302335
:101500000E93FEF791FEB1480EA9FEF78DFEB0488E
:101510000CA9FEF789FEAF4808A9FEF785FE9020CA
:10152000211CC005FEF780FE0020FFF7E1F9AA4963
:10153000086001208946FFF7DBF9A84B18600220FC
:101540009A46FFF7D5F9A64A10600320FFF7D0F9B5
:10155000A44B186004209B46FFF7CAF9A24A10600A
:10156000FFF7C4FBA14BA24EA24DA34C984604A981
:101570000020FFF76BF841460B68002B3ED0012B93
:1015800000D1E9E0022B00D1F3E03368012B58D001
:101590003368012B00D1BEE02B68012B6AD02B6889
:1015A000012B00D1CDE02368012B00D187E0236817
:1015B000012B00D1BAE04B461B68002BD7D06946FF
:1015C0005A460B7C1268934200D195E05146096857
:1015D0008B42CCD182496A46537C09688B42C6D182
:1015E000937C0E2BC3D80023424604A9002013602D
:1015F000FFF72CF841460B68002BC0D16B461A7CD4
:101600007E49381C00F0E6FE397800203039FFF7BB
:1016100099FC797801203039FFF794FC69464A7CBF
:10162000381C764900F0D6FE397802203039FFF7B1
:1016300089FC797803203039FFF784FC3368012B6B
:10164000A6D1FFF753FB6E490B68C01AC21780186A
:10165000962350405B0098429ADD80215D488901C5
:10166000FEF732FE002893D13060FFF77BFE2B6837
:10167000012B94D1FFF73AFB62490B68C01AC217DD
:101680008018962350405B00984288DD80215148A5
:10169000C901FEF719FE002881D1424611680223D4
:1016A00099430B1C2860FA205A425341414640009E
:1016B0000B60FFF713FB2368012B00D077E7FFF7E0
:1016C00015FB514A1368C01AC317C0185840FA23B3
:1016D0001B01984200DC6AE780213E480902FEF7C0
:1016E000F3FD0390002800D061E72060FFF7D6FDEE
:1016F0000399424611605EE74A7C3B4909688A4289
:1017000000D063E769468A7C0E2A00D95EE7012291
:1017100041460A605AE780212E488901FEF7D4FD30
:10172000002800D138E70023336035E780212948BD
:101730000902FEF7C9FD002800D13CE70023236021
:1017400039E780212348C901FEF7BEFD002800D1FA
:1017500029E700232B6026E70020FFF751FB01203B
:10176000FFF74EFB0220FFF74BFB0320FFF748FB80
:101770000BE7FFF7EFF9FFF75DFA03900020FFF7A3
:101780003FFB0220FFF73CFB039800F041FD1B49A3
:10179000021C381C00F01EFE397803203039FFF798
:1017A000D1FB797801203039FFF7CCFB1748FFF7E0
:1017B00095FA002342461360E7E6C046F89F000012
:1017C000000800487F040000301F0000001400489B
:1017D000000C004800040048C0000020C8000020A1
:1017E000C4000020CC000020D00000208C0000208D
:1017F00094000020A0000020A8000020E02C000899
:1018000090000020980000209C0000208813000019
:101810000749084A084B9B1A05DD00240859105156
:1018200004349C42FADB0548804705480047000025
:10183000B82D00080000002070000020B11800083A
:10184000250100081849194A002301E00B60043102
:101850009142FBD3FFF702FEFEE7FEE7FEE7FEE75D
:10186000FEE7FEE7FEE7FEE7FEE7FEE7FEE7FEE750
:10187000FEE7FEE7FEE7FEE7FEE7FEE7FEE7FEE740
:10188000FEE7FEE7FEE7FEE7FEE7FEE7FEE7FEE730
:10189000FEE7FEE7FEE7FEE7FEE7FEE7FEE7FEE720
:1018A000FEE7FEE7FEE7FEE770000020D80000201C
:1018B000144B0122196811431960586812490140FC
:1018C00059601868114901401960186810490140B1
:1018D000196058680F4901405960D96A0F20814347
:1018E000D962186B0C4901401963596B914300226E
:1018F00059639A60094A102111605A685A605A68FF
:101900005A607047001002400CB8FFF8FFFFF6FE67
:10191000FFFFFBFFFFFFC0FFACFEFFFF0020024008
:10192000002934D00123002210B488422CD3012492
:101930002407A14204D2814202D209011B01F8E727
:10194000E400A14204D2814202D249005B00F8E7E0
:10195000884201D3401A1A434C08A04202D3001B0C
:101960005C0822438C08A04202D3001B9C0822433F
:10197000CC08A04202D3001BDC082243002803D07D
:101980001B0901D00909E3E7101C10BC70470028AF
:1019900001D00020C04307B4024802A140180290C1
:1019A00003BDC046190000000029F0D003B5FFF7C1
:1019B000B9FF0EBC4243891A1847C0467047C0465B
:1019C000F8B5430242004F024C00C00F9B09120EB3
:1019D000061C9C46240EC90FBF09884258D0151B0F
:1019E000002D00DC7FE0002C42D1002F65D0013DAE
:1019F000002D00D0AEE0DB1B141C061C590145D5A0
:101A00009B019D09281C00F079FC05388540844223
:101A100000DD7AE0041B621C2B1CD3401A1C1F2320
:101A20001B1B9D402B1C5D1EAB4113430125002455
:101A30000F221A40042A00D004338022D20401204D
:101A40001A400640002A05D0FF2D5BD0B44A2C1C5A
:101A500013400135EDB2DB08012D3CDD5B025B0A72
:101A6000E4B25802E405400AF60720433043F8BDCB
:101A7000FF2A2BD08023DB041F4301231B2D49DDCC
:101A80006146CB1A141C061C5901B9D4651CCFE75A
:101A9000111B00294FDD002C13D0FF2A5CD08023BE
:101AA000DB041F4301231B2900DCB3E06344141C47
:101AB000590157D4651C061CBAE7551C141C061C9A
:101AC000B6E7002F7ED1551C141CB1E78025634674
:101AD0006D00FF24ACE7002BC2D0002C28D0802062
:101AE000C0030343BAE7002D49D1531CDBB2012BDD
:101AF00000DC99E06346DD1B68015AD5FD1A141C11
:101B00000E1C7FE7FF240023ABE7854B241A2B40F4
:101B1000651C8DE720235B1B391C9F403B1CE94063
:101B20005F1EBB410B436146CB1A141C061CABE77E
:101B30005B025B0A95E7002900D081E0541CE3B208
:101B4000012B54DDFF2C00D19CE060463B185B0864
:101B5000951C6DE7FF2A90D180256346061C6D0019
:101B6000FF2465E7621CFF2A3CD06D4D012119401E
:101B70002B405B08A51C0B43141C061C58E76D4248
:101B8000002A25D0FF2C71D080236246DB041A4343
:101B9000944601231B2D09DC20235B1B60469840E3
:101BA0006246031CEA40581E83411343FB1A0E1C75
:101BB00024E7141C002D00D024E70026012504236F
:101BC000002447E70139002908D1FB18141C6FE7EE
:101BD000002B51D1651C3B1C0E1C29E7FF2A00D0AD
:101BE00060E7B9E78025FF246D00042332E7002A6F
:101BF0007FD16246002A00D1A4E0002F00D1B2E0DC
:101C0000BB18590100D4B3E0454A061C1340022515
:101C100001240DE720235B1A3C1C9F403B1CCC4059
:101C20005F1EBB41234341E7002A12D16246002ACE
:101C300042D1002FC1D03B1C0E1C01250024F7E629
:101C40004942002A22D1002B6ED1651C3B1C061C88
:101C5000EEE66346002B3AD1002F07D180250026FF
:101C60006D00304BFF24F5E6FF2C92D180253B1C04
:101C70000E1C6D00FF24DBE6013D002DF4D1FB1AA4
:101C80000E1CBBE680256D000423E3E6FF2C60D02C
:101C900080236246DB041A43944601231B2909DC96
:101CA000624620235B1ACA40614699400B1C591EAC
:101CB0008B411343DB19FBE6002F3AD0D31B604660
:101CC0005A014CD53B1A0E1C01250024B0E6002F0A
:101CD00000D1FBE68022DB08D203134204D0FF08C8
:101CE000174201D13B1C0E1C8025DB006D00FF2438
:101CF0009EE66246002A20D0002F00D1E6E6802131
:101D0000D208C903131C0A4203D0FB080B4200D0BF
:101D1000131C8025DB00061C6D00FF2488E6C046EE
:101D2000FFFFFFFBFCFFFF03013900290FD1FB1868
:101D3000BEE66346012500247AE680253B1C6D0043
:101D4000FF2475E63B1C061C0125002470E6FF2CD1
:101D5000A3D180253B1C061C6D00FF2468E6002BE8
:101D600000D12AE762E66346061C012500245FE6EF
:101D7000061C012500245BE6F0B55F4656464D463D
:101D80004446F0B44502440083B00E1C6D0A240E94
:101D9000C70F002C07D1002D00D075E004210122CF
:101DA0008946924609E0FF2C37D080231B0400218E
:101DB0001D43ED007F3C89468A46311C480076026F
:101DC000C90F760A000E8B462ED101239C46002EA9
:101DD00066D15A467A406346494601920B430F2B1F
:101DE00033D9201A80466B017601B34200D299E0C4
:101DF0009B1B1A2001220125DC0F52005B00B3421D
:101E000001D2002C01D09B1B2A4301380028F3DCAF
:101E10001D1C6B1E9D4115435BE0002D2FD1082238
:101E2000022391469A46C8E7FF2822D00022802349
:101E30001B0494465A461E437A4063464946F600C0
:101E40007F3801920B430F2BCBD854499B00CB58C2
:101E50009F46019AFF2000256D02C105680AD2073E
:101E60000843104303B03CBC90469946A246AB469B
:101E7000F0BD321C531E9A4102329446A9E70C234E
:101E8000032199468A4698E7281C00F037FA762401
:101E9000431F9D4064420023241A99469A468CE7CA
:101EA000301C00F02BFA431F9E4076235B4200213A
:101EB000181A8C468DE70022394DFF20CCE7594691
:101EC000351C01916246022AC3D0032A5ED0012A42
:101ED0003ED040467F30002830DD0F232B40042BBE
:101EE00000D00435290103D52E4B40461D408030DB
:101EF000FE28AEDCAD016D0AC0B2019AACE700204D
:101F00000025A9E78023DB031D4211D01E420FD11B
:101F10001D1C35436D026D0A5A46FF209CE7019750
:101F20005246D0E70122524290441B20002262E731
:101F30001D436D026D0A3A1CFF208DE77E235B4234
:101F400042469B1A1B2B08DD019A0020002583E7DF
:101F5000019B00201A4000257EE7281CD8404346FC
:101F60009E339D402B1C5D1EAB4103430F221A4044
:101F7000042A00D00433590103D5019A0120002519
:101F80006AE79D016D0A019A002065E78026F60345
:101F900035436D026D0A019AFF205DE7F02C0008C1
:101FA000FFFF7F00FFFFFFF7F0B55F4656464D4647
:101FB0004446F0B44502460083B00F1C6D0A360E4D
:101FC000C40F002E06D1002D70D1042001228046BE
:101FD000924609E0FF2E43D080231B0400201D43BE
:101FE000ED007F3E80468246391C4B007F02C90FC0
:101FF0007F0A1B0E8B463AD10121002F62D15A462F
:102000006240019242460A430F2A3FD9F6182B0438
:102010001B0C3A04120C191C51433F0C2D0C7B4332
:102020006A432C1C0D0C5B199B18B1467C439A42E9
:1020300000D99DE009041A04090C521895011B0CE3
:10204000691E8D41920EE4181543A40125432B010E
:102050004BD501232B4001206D0881441D4344E0F2
:10206000002D1ED10822022390469A46BCE7FF2B82
:1020700012D08022120417435A4662400021019276
:102080004246FF007F3B0A430F2ABFD892005D48BB
:102090009046404402689746391C4A1E91410231DD
:1020A000ADE70C230320984682469DE7281C00F0EC
:1020B00025F97626431F9D4076420023361A98461E
:1020C0009A4691E7381C00F019F9431F9F40762388
:1020D0005B421B1A002192E70194514602292ED03F
:1020E000032900D183E001294BD04B467F33002BDD
:1020F00054DD0F222A40042A00D004352A0103D5DA
:10210000414B1D404B468033FE2B40DD019B01249B
:102110001C400025FF236D02DB05680AE407184315
:10212000204303B03CBC90469946A246AB46F0BD66
:102130000024364DFF23EEE751460229D0D1019805
:1021400001240440FF230025E5E75B463D1C019385
:10215000C4E73D1CC2E78020C00305420CD0074203
:102160000AD1051C3D436D026D0A5C46FF23D2E790
:1021700080225202A4185DE705436D026D0AFF2319
:10218000C9E7019800230140CCB20025C3E70198BC
:10219000AD0101246D0ADBB20440BCE77E235B4243
:1021A0004A469B1A1B2B05DD019B01241C40002580
:1021B0000023B0E72A1CDA404B469E339D402B1C7F
:1021C0005D1EAB4113430F221A40042A00D0043392
:1021D000580105D5019A01241440012300259AE7EE
:1021E0009D01019B01241C406D0A002393E7802779
:1021F000FF033D43019A6D0201246D0A1440FF2341
:1022000089E7C046302D0008FFFFFFF7FFFF7F0082
:102210004302590A4300C20F00B51B0E00207E2B5B
:102220000DDD9D2B0CDC802000040143952B0ADC86
:102230009620C31AD9404842002A00D1081C00BD8C
:10224000024BD018FBE7963B9940F4E7FFFFFF7F76
:1022500070B5041C00283DD0C50F00D04442201C9E
:1022600000F04CF89E23261C1B1A962B0BDC08381A
:1022700084406402640ADBB26402DB05600AED0795
:102280001843284370BD992B0ADD0522121A211C20
:10229000D1400A1C011C1B318E40711E8E41164319
:1022A00005281BDC144C0F2234401640042E00D0AD
:1022B0000434620105D59F231B1AFF2B0CD00E4A54
:1022C00014405A1CD2B2E408012A0ADD6402640AEE
:1022D000DBB2D1E7002500230024CDE7421F964062
:1022E000E0E7002CF4D0002B03D08022D20314436B
:1022F000ECE76402640ABFE7FFFFFFFB1C21012338
:102300001B04984201D3000C10391B0A984201D3D8
:10231000000A08391B09984201D30009043902A2B6
:10232000105C40187047C04604030202010101011D
:102330000000000000000000084B10B5041C002B3A
:1023400002D0002100E000BF054B1868836A002B13
:1023500000D09847201C00F081FCC046000000001F
:10236000742D000870B50E4B0E4D0024ED1AAD1003
:102370001E1C03E0A300F35898470134AC42F9D186
:1023800000F06EFC084B094D0024ED1AAD101E1C28
:1023900003E0A300F35898470134AC42F9D170BD73
:1023A0006800002068000020680000206C00002009
:1023B00010B5002302E0CC5CC45401339342FAD13F
:1023C00010BD00B58218031C01E01970013393425F
:1023D000FBD100BD0EB400B59CB01DAB04CB822276
:1023E00002A992008A810A4A02908A604A61012207
:1023F0005242CA81074A086110681D9A019300F091
:102400006FF8029A002313701CB008BC03B0184781
:10241000FFFFFF7F64000020F0B58D6885B0071CCA
:102420000C1C03920193AB4242D390238A89DB00B8
:102430001A423AD0636909695E00F3182068DE0F1A
:10244000401AF31802905E10031C019801331B1808
:102450009E4200D21E1C381C530511D5311C00F0C1
:102460003DFB051C002800D114E0029A2169FFF70A
:102470009FFFA289194B134080221343A3810CE0D4
:10248000321C00F083FB051C002806D1381C216992
:1024900000F0D6FA0C233B6018E0029825612D1855
:1024A00025606661019D361AA660019AAA4200D293
:1024B000019D2A1C2068039900F0AAFAA0682268EE
:1024C000431B5519A3602560002005E0A389402225
:1024D00013430120A381404205B0F0BD7FFBFFFF05
:1024E000F0B59FB005938B89061C0D1C141C1806B3
:1024F0000FD5096900290CD1301C402100F0EEFAFB
:1025000028602861002802D10C233360CEE04023EC
:102510006B61002206AB0B9220225A7630229A760B
:10252000271C00E001373B78252B01D0002BF9D187
:102530003A1B03920CD0301C291C221C039BFFF772
:102540006BFF013000D1ACE00B98039943180B935B
:102550003B78002B00D1A4E00122524207926A4648
:1025600000235B327C1C06930993089313701C9321
:1025700006E0C71B069A0120B840104306900134BC
:102580004C4F2178381C052200F036FA0028F0D193
:10259000069BD80603D56A4620215B3211701907C5
:1025A00003D56A462B215B32117022782A2A02D089
:1025B000099B0A2111E0059A111D12680591002A54
:1025C00001DB099204E0524209920222134306936E
:1025D000013407E04B4301349B182278303A092A32
:1025E000F8D9099323782E2B19D163782A2B0AD195
:1025F000059B02341A1D1B680592002B00DB0DE0C1
:1026000001235B420AE0013400230A2102E04B432C
:1026100001349B182278303A092AF8D90793264FBB
:102620002178381C032200F0E7F9002806D0C71BE8
:10263000069A4020B840104306900134217806AF36
:102640001E4806223976013400F0D6F9002817D04A
:102650001B4B002B0BD13968059A0723C80501D500
:10266000D21800E007329A430832059214E005AB15
:102670000093301C391C2A1C124B00E000BF07E0FD
:1026800005AB0093301C391C2A1C0E4B00F090F84F
:1026900004900499013104D00B9A049813180B93F9
:1026A0003EE7AB89590601D40B9801E00120404276
:1026B0001FB0F0BD782D00087E2D0008822D000887
:1026C0000000000019240008F7B5151C01930A69E1
:1026D0008B68061C0C1C934200DA131C221C2B6016
:1026E00043321278002A01D001332B602068800623
:1026F00002D52B6802332B60216806270F4016D0C5
:10270000231C43331B785A1E93412268920616D429
:1027100020E0221C1932301C01990123089FB84780
:10272000013002D10120404240E0009F0137009774
:10273000E0682968009F431A9F42EADBE0E7E2185D
:10274000111C40313020C870211C453109784132BC
:10275000D1700233221C4332301C0199089FB847C4
:102760000130DFD0206806212B68E2680140002597
:10277000042903D1D51AEB43DB171D40A268236956
:102780009A4201DDD31AED1800270AE0221C1A3202
:10279000301C01990123089FB8470130C2D0009F27
:1027A00001370097009FAF42F0DB0020FEBD000024
:1027B000F0B50D1C8BB04335079305900692049538
:1027C0000A7E0C1C109B6E2A00D1B1E00FD8632A40
:1027D0001DD006D8002A00D1BBE0582A00D0CBE09B
:1027E0004AE0642A1BD0692A00D0C5E017E0732AAA
:1027F00000D1B2E005D86F2A29D0702A00D0BBE002
:102800003EE0752A23D0782A00D0B5E03CE01A6873
:102810000E1C111D1960136842363370AFE0216839
:102820001A680E0600D506E0480604D5111D196089
:102830000021555E02E0111D196015686C4B002DDA
:1028400047DA221C43322D216D42117041E021688C
:102850001A680D0600D505E04E0603D5111D196056
:10286000158802E0111D19601568614B227E0393E3
:1028700008276F2A28D026E045310A705C4D08E011
:102880000E68202232430A60221C45327821594DBD
:1028900011701A682168101D039518600E0600D586
:1028A00003E0480601D5158800E01568CA0702D57F
:1028B0002023194321601027002D05D126682023ED
:1028C0009E43266000E00A27231C433300221A702F
:1028D00001E003930A276368A360002B03DB2068F1
:1028E000042290432060002D02D1049E002B0FD0C3
:1028F000049E281C391CFFF757F8039A013E535CCD
:10290000281C3370391CFFF70BF8051C0028F0D188
:10291000082F09D12368DB0706D565682069854241
:1029200002DC013E30233370049DAB1B23612CE09D
:1029300008681A684969060600D506E0450604D508
:10294000101D18601368198003E0101D18601368CB
:10295000196000232361049E17E01A68111D196095
:102960001668301C00F04CF963682061984200D969
:1029700023612069606004E0261C42363270012326
:102980002361231C433300221A70079D059800958C
:10299000211C09AA069BFFF797FE013002D10120F6
:1029A000404222E0321C059806992369079EB047F1
:1029B0000130F4D02068800710D4099BE068984269
:1029C00013DA181C11E0221C19320598069901230C
:1029D000079EB0470130E2D0013500E00025E068F5
:1029E0000999431A9D42EEDBE7E70BB0F0BDC04604
:1029F000892D00089A2D000800B5C9B2821803E09D
:102A000003788B4203D001309042F9D1002000BD01
:102A100070B5814210D28B1898420DD28418514261
:102A200003E05D18AE5C6518AE54013AF9D206E0D9
:102A3000CC5CC454013300E000239342F8D170BD54
:102A4000F0B5002947D004390B68002B00DAC9180B
:102A5000214A1368141C002B02D14B6011603AE02C
:102A600099420ED208680A189A4205D11368526832
:102A7000C01808604A6000E04B6021602BE0131C26
:102A800000E000245A68251C161C91426541771EFF
:102A9000BE412E42F3D11D685C198C420AD10868F0
:102AA000281819181860914215D10A6849688018C9
:102AB00018600FE08C4202D90C2303600BE00C6815
:102AC0000819904205D102684068A4180C6048605B
:102AD00000E04A605960F0BDB0000020F8B5CD1CA0
:102AE00003239D430835061C0C2D00D20C25002D18
:102AF00044DB8D4200D241E0224A1368111C1C1CA9
:102B000011E02068421B0CD40B2A02D92260A418C1
:102B10001CE0A34202D162680A6020E0606858604D
:102B20001DE0231C6468002CEBD122E0301C211C2A
:102B300000F054F83860301C291C00F04FF8421C9B
:102B40001CD0C41C03239C43844201D1256006E0B1
:102B5000211A301C00F042F80130F7D10EE0201CA1
:102B60000B300722231D9043C31A0AD05A42E25069
:102B700007E0054F3B68002BDDD1D7E70C2333601E
:102B80000020F8BDB0000020AC000020F8B5061C05
:102B90000C1C151C002904D1111CFFF79FFF041CFD
:102BA00019E0002A03D1FFF74BFF2C1C13E000F0C3
:102BB0002EF8A8420FD2301C291CFFF78FFF071CEC
:102BC000002807D0211C2A1CFFF7F2FB301C211C17
:102BD000FFF736FF3C1C201CF8BD000038B5074C41
:102BE0000023051C081C236000F01CF8431C03D1C3
:102BF0002368002B00D02B6038BDC046D4000020D5
:102C00000023C25C0133002AFBD1581E70470439EF
:102C10000B6800B5181F002B02DAC8581B18181FC4
:102C200000BD00000A4A00B51368002B0CD018182C
:102C30006946884202D81060181C00BD054B0C2262
:102C40001A6001235B42F7E7034B1360EFE7C046CE
:102C5000B4000020D4000020D800002000B5FEE71A
:102C6000F8B5C046F8BC08BC9E467047F8B5C046EB
:102C7000F8BC08BC9E467047CA100008C010000887
:102C8000B6100008AA1000089E1000089210000854
:102C9000861000087A10000870100008D410000890
:102CA000F20F0008661000085A1000084C100008C7
:102CB0003E10000830100008221000081410000810
:102CC00008100008FC0F0008DE0F0008D40F0008F1
:102CD000CA0F0008C00F0008B40F0008E80F000872
:102CE000253032640000000025303164000000000F
:102CF000E21D0008521E0008FE1E0008BE1E00084D
:102D0000FE1E0008B61E0008FE1E0008BE1E0008BB
:102D1000521E0008521E0008B61E0008BE1E000803
:102D20001E1F00081E1F00081E1F0008041F0008A9
:102D30000C20000852210008522100084A210008F6
:102D40003821000838210008302100084A210008F5
:102D50003821000830210008382100084A210008E5
:102D6000D8200008D8200008D820000856210008E4
:102D70004300000004000020232D302B2000686C4D
:102D80004C0065666745464700303132333435368E
:102D900037383941424344454600303132333435C7
:102DA00036373839616263646566000000000000F0
:082DB00074D3FF7F0100000055
:102DB80000127A000000000000000000000000007F
:102DC80000000000000000000000000000000000FB
:102DD80000000000702D0008000000000000000046
:102DE80000000000000000000000000000000000DB
:102DF80000000000000000000000000000000000CB
:102E080000000000000000000000000000000000BA
:102E18000000000004000020ED000008C5000008C4
:0400000508000000EF
:00000001FF
